{
  "_format": "hh-sol-artifact-1",
  "contractName": "TokenReceiver",
  "sourceName": "contracts/TokenReceiver.sol",
  "abi": [
    {
      "inputs": [
        {
          "internalType": "contract IERC20",
          "name": "token",
          "type": "address"
        }
      ],
      "stateMutability": "nonpayable",
      "type": "constructor"
    },
    {
      "anonymous": false,
      "inputs": [
        {
          "indexed": false,
          "internalType": "address",
          "name": "from",
          "type": "address"
        }
      ],
      "name": "DoneStuff",
      "type": "event"
    },
    {
      "inputs": [],
      "name": "doStuff",
      "outputs": [],
      "stateMutability": "nonpayable",
      "type": "function"
    }
  ],
  "bytecode": "0x608060405234801561001057600080fd5b506040516103803803806103808339818101604052602081101561003357600080fd5b8101908080519060200190929190505050806000806101000a81548173ffffffffffffffffffffffffffffffffffffffff021916908373ffffffffffffffffffffffffffffffffffffffff160217905550506102ec806100946000396000f3fe608060405234801561001057600080fd5b506004361061002b5760003560e01c8063874f33a114610030575b600080fd5b61003861003a565b005b6000339050610048306101c8565b6000809054906101000a900473ffffffffffffffffffffffffffffffffffffffff1673ffffffffffffffffffffffffffffffffffffffff166323b872dd82306103e86040518463ffffffff1660e01b8152600401808473ffffffffffffffffffffffffffffffffffffffff1673ffffffffffffffffffffffffffffffffffffffff1681526020018373ffffffffffffffffffffffffffffffffffffffff1673ffffffffffffffffffffffffffffffffffffffff1681526020018281526020019350505050602060405180830381600087803b15801561012657600080fd5b505af115801561013a573d6000803e3d6000fd5b505050506040513d602081101561015057600080fd5b8101908080519060200190929190505050507ffb55d69a924eb175f134fb8cbb875beb7c22325179dac4eee4af2bd5de6a2ec381604051808273ffffffffffffffffffffffffffffffffffffffff1673ffffffffffffffffffffffffffffffffffffffff16815260200191505060405180910390a150565b61028a81604051602401808273ffffffffffffffffffffffffffffffffffffffff1673ffffffffffffffffffffffffffffffffffffffff1681526020019150506040516020818303038152906040527f2c2ecbc2000000000000000000000000000000000000000000000000000000007bffffffffffffffffffffffffffffffffffffffffffffffffffffffff19166020820180517bffffffffffffffffffffffffffffffffffffffffffffffffffffffff838183161783525050505061028d565b50565b60008151905060006a636f6e736f6c652e6c6f679050602083016000808483855afa505050505056fea2646970667358221220f0f76786362370521ec95b20c95203e915c43511ea6e17e0346a1d21059d1af064736f6c63430006060033",
  "linkReferences": {},
  "deployedLinkReferences": {}
}